{
  "contractName": "Market",
  "abi": [
    {
      "inputs": [],
      "payable": false,
      "stateMutability": "nonpayable",
      "type": "constructor"
    },
    {
      "anonymous": false,
      "inputs": [
        {
          "indexed": true,
          "internalType": "address",
          "name": "_by",
          "type": "address"
        },
        {
          "indexed": false,
          "internalType": "uint256",
          "name": "_value",
          "type": "uint256"
        },
        {
          "indexed": false,
          "internalType": "uint256",
          "name": "_tokenId",
          "type": "uint256"
        }
      ],
      "name": "Listed",
      "type": "event"
    },
    {
      "anonymous": false,
      "inputs": [
        {
          "indexed": true,
          "internalType": "address",
          "name": "previousOwner",
          "type": "address"
        },
        {
          "indexed": true,
          "internalType": "address",
          "name": "newOwner",
          "type": "address"
        }
      ],
      "name": "OwnershipTransferred",
      "type": "event"
    },
    {
      "anonymous": false,
      "inputs": [
        {
          "indexed": true,
          "internalType": "address",
          "name": "_from",
          "type": "address"
        },
        {
          "indexed": true,
          "internalType": "address",
          "name": "_to",
          "type": "address"
        },
        {
          "indexed": false,
          "internalType": "uint256",
          "name": "_value",
          "type": "uint256"
        },
        {
          "indexed": false,
          "internalType": "uint256",
          "name": "_tokenId",
          "type": "uint256"
        }
      ],
      "name": "Sold",
      "type": "event"
    },
    {
      "constant": true,
      "inputs": [],
      "name": "isOwner",
      "outputs": [
        {
          "internalType": "bool",
          "name": "",
          "type": "bool"
        }
      ],
      "payable": false,
      "stateMutability": "view",
      "type": "function"
    },
    {
      "constant": false,
      "inputs": [
        {
          "internalType": "address",
          "name": "",
          "type": "address"
        },
        {
          "internalType": "address",
          "name": "",
          "type": "address"
        },
        {
          "internalType": "uint256",
          "name": "",
          "type": "uint256"
        },
        {
          "internalType": "bytes",
          "name": "",
          "type": "bytes"
        }
      ],
      "name": "onERC721Received",
      "outputs": [
        {
          "internalType": "bytes4",
          "name": "",
          "type": "bytes4"
        }
      ],
      "payable": false,
      "stateMutability": "nonpayable",
      "type": "function"
    },
    {
      "constant": true,
      "inputs": [],
      "name": "owner",
      "outputs": [
        {
          "internalType": "address",
          "name": "",
          "type": "address"
        }
      ],
      "payable": false,
      "stateMutability": "view",
      "type": "function"
    },
    {
      "constant": false,
      "inputs": [],
      "name": "renounceOwnership",
      "outputs": [],
      "payable": false,
      "stateMutability": "nonpayable",
      "type": "function"
    },
    {
      "constant": false,
      "inputs": [
        {
          "internalType": "address",
          "name": "newOwner",
          "type": "address"
        }
      ],
      "name": "transferOwnership",
      "outputs": [],
      "payable": false,
      "stateMutability": "nonpayable",
      "type": "function"
    },
    {
      "constant": false,
      "inputs": [
        {
          "internalType": "address",
          "name": "CMaddress",
          "type": "address"
        }
      ],
      "name": "setCMContract",
      "outputs": [],
      "payable": false,
      "stateMutability": "nonpayable",
      "type": "function"
    },
    {
      "constant": true,
      "inputs": [],
      "name": "getCMContract",
      "outputs": [
        {
          "internalType": "contract Cryptomon",
          "name": "",
          "type": "address"
        }
      ],
      "payable": false,
      "stateMutability": "view",
      "type": "function"
    },
    {
      "constant": true,
      "inputs": [],
      "name": "getListedTokens",
      "outputs": [
        {
          "internalType": "uint256[]",
          "name": "",
          "type": "uint256[]"
        }
      ],
      "payable": false,
      "stateMutability": "view",
      "type": "function"
    },
    {
      "constant": true,
      "inputs": [
        {
          "internalType": "uint256",
          "name": "tokenId",
          "type": "uint256"
        }
      ],
      "name": "getTokenPrice",
      "outputs": [
        {
          "internalType": "uint256",
          "name": "",
          "type": "uint256"
        }
      ],
      "payable": false,
      "stateMutability": "view",
      "type": "function"
    },
    {
      "constant": false,
      "inputs": [
        {
          "internalType": "uint256",
          "name": "tokenId",
          "type": "uint256"
        },
        {
          "internalType": "uint256",
          "name": "price",
          "type": "uint256"
        }
      ],
      "name": "sell",
      "outputs": [],
      "payable": false,
      "stateMutability": "nonpayable",
      "type": "function"
    },
    {
      "constant": false,
      "inputs": [
        {
          "internalType": "uint256",
          "name": "tokenId",
          "type": "uint256"
        }
      ],
      "name": "buy",
      "outputs": [],
      "payable": true,
      "stateMutability": "payable",
      "type": "function"
    }
  ],
  "bytecode": "0x60806040526000600360146101000a81548160ff02191690831515021790555034801561002b57600080fd5b5061003a6100fa60201b60201c565b6000806101000a81548173ffffffffffffffffffffffffffffffffffffffff021916908373ffffffffffffffffffffffffffffffffffffffff1602179055506000809054906101000a900473ffffffffffffffffffffffffffffffffffffffff1673ffffffffffffffffffffffffffffffffffffffff16600073ffffffffffffffffffffffffffffffffffffffff167f8be0079c531659141344cd1fd0a4f28419497f9722a3daafe3b4186f6b6457e060405160405180910390a3610102565b600033905090565b6115e9806101116000396000f3fe60806040526004361061009c5760003560e01c80638f32d59b116100645780638f32d59b14610336578063c457fb3714610365578063d79875eb146103b4578063d96a094a146103f9578063e8c783aa14610427578063f2fde38b146104785761009c565b80631497b734146100a1578063150b7a02146100f85780632ba996a51461025c578063715018a6146102c85780638da5cb5b146102df575b600080fd5b3480156100ad57600080fd5b506100b66104c9565b604051808273ffffffffffffffffffffffffffffffffffffffff1673ffffffffffffffffffffffffffffffffffffffff16815260200191505060405180910390f35b34801561010457600080fd5b506102086004803603608081101561011b57600080fd5b81019080803573ffffffffffffffffffffffffffffffffffffffff169060200190929190803573ffffffffffffffffffffffffffffffffffffffff169060200190929190803590602001909291908035906020019064010000000081111561018257600080fd5b82018360208201111561019457600080fd5b803590602001918460018302840111640100000000831117156101b657600080fd5b91908080601f016020809104026020016040519081016040528093929190818152602001838380828437600081840152601f19601f82011690508083019250505050505050919291929050505061056d565b60405180827bffffffffffffffffffffffffffffffffffffffffffffffffffffffff19167bffffffffffffffffffffffffffffffffffffffffffffffffffffffff1916815260200191505060405180910390f35b34801561026857600080fd5b50610271610581565b6040518080602001828103825283818151815260200191508051906020019060200280838360005b838110156102b4578082015181840152602081019050610299565b505050509050019250505060405180910390f35b3480156102d457600080fd5b506102dd6105d9565b005b3480156102eb57600080fd5b506102f4610712565b604051808273ffffffffffffffffffffffffffffffffffffffff1673ffffffffffffffffffffffffffffffffffffffff16815260200191505060405180910390f35b34801561034257600080fd5b5061034b61073b565b604051808215151515815260200191505060405180910390f35b34801561037157600080fd5b5061039e6004803603602081101561038857600080fd5b8101908080359060200190929190505050610799565b6040518082815260200191505060405180910390f35b3480156103c057600080fd5b506103f7600480360360408110156103d757600080fd5b81019080803590602001909291908035906020019092919050505061084f565b005b6104256004803603602081101561040f57600080fd5b8101908080359060200190929190505050610c80565b005b34801561043357600080fd5b506104766004803603602081101561044a57600080fd5b81019080803573ffffffffffffffffffffffffffffffffffffffff169060200190929190505050611106565b005b34801561048457600080fd5b506104c76004803603602081101561049b57600080fd5b81019080803573ffffffffffffffffffffffffffffffffffffffff1690602001909291905050506111df565b005b60006104d361073b565b610545576040517f08c379a00000000000000000000000000000000000000000000000000000000081526004018080602001828103825260208152602001807f4f776e61626c653a2063616c6c6572206973206e6f7420746865206f776e657281525060200191505060405180910390fd5b600360009054906101000a900473ffffffffffffffffffffffffffffffffffffffff16905090565b600063150b7a0260e01b9050949350505050565b606060018054806020026020016040519081016040528092919081815260200182805480156105cf57602002820191906000526020600020905b8154815260200190600101908083116105bb575b5050505050905090565b6105e161073b565b610653576040517f08c379a00000000000000000000000000000000000000000000000000000000081526004018080602001828103825260208152602001807f4f776e61626c653a2063616c6c6572206973206e6f7420746865206f776e657281525060200191505060405180910390fd5b600073ffffffffffffffffffffffffffffffffffffffff166000809054906101000a900473ffffffffffffffffffffffffffffffffffffffff1673ffffffffffffffffffffffffffffffffffffffff167f8be0079c531659141344cd1fd0a4f28419497f9722a3daafe3b4186f6b6457e060405160405180910390a360008060006101000a81548173ffffffffffffffffffffffffffffffffffffffff021916908373ffffffffffffffffffffffffffffffffffffffff160217905550565b60008060009054906101000a900473ffffffffffffffffffffffffffffffffffffffff16905090565b60008060009054906101000a900473ffffffffffffffffffffffffffffffffffffffff1673ffffffffffffffffffffffffffffffffffffffff1661077d611265565b73ffffffffffffffffffffffffffffffffffffffff1614905090565b60006002600083815260200190815260200160002060020160009054906101000a900460ff16610831576040517f08c379a00000000000000000000000000000000000000000000000000000000081526004018080602001828103825260198152602001807f546f6b656e206e6f74206c697374656420666f722073616c650000000000000081525060200191505060405180910390fd5b60026000838152602001908152602001600020600101549050919050565b600360149054906101000a900460ff166108b4576040517f08c379a00000000000000000000000000000000000000000000000000000000081526004018080602001828103825260308152602001806115196030913960400191505060405180910390fd5b3073ffffffffffffffffffffffffffffffffffffffff16600360009054906101000a900473ffffffffffffffffffffffffffffffffffffffff1673ffffffffffffffffffffffffffffffffffffffff1663081812fc846040518263ffffffff1660e01b81526004018082815260200191505060206040518083038186803b15801561093e57600080fd5b505afa158015610952573d6000803e3d6000fd5b505050506040513d602081101561096857600080fd5b810190808051906020019092919050505073ffffffffffffffffffffffffffffffffffffffff16146109e5576040517f08c379a00000000000000000000000000000000000000000000000000000000081526004018080602001828103825260298152602001806114f06029913960400191505060405180910390fd5b600360009054906101000a900473ffffffffffffffffffffffffffffffffffffffff1673ffffffffffffffffffffffffffffffffffffffff16636352211e836040518263ffffffff1660e01b81526004018082815260200191505060206040518083038186803b158015610a5857600080fd5b505afa158015610a6c573d6000803e3d6000fd5b505050506040513d6020811015610a8257600080fd5b810190808051906020019092919050505073ffffffffffffffffffffffffffffffffffffffff163373ffffffffffffffffffffffffffffffffffffffff1614610b16576040517f08c379a00000000000000000000000000000000000000000000000000000000081526004018080602001828103825260258152602001806115906025913960400191505060405180910390fd5b6002600083815260200190815260200160002060020160009054906101000a900460ff16610b6b5760018290806001815401808255809150509060018203906000526020600020016000909192909190915055505b60405180606001604052803373ffffffffffffffffffffffffffffffffffffffff168152602001828152602001600115158152506002600084815260200190815260200160002060008201518160000160006101000a81548173ffffffffffffffffffffffffffffffffffffffff021916908373ffffffffffffffffffffffffffffffffffffffff1602179055506020820151816001015560408201518160020160006101000a81548160ff0219169083151502179055509050503373ffffffffffffffffffffffffffffffffffffffff167f6e16e8064e3c8254cef11e01e152416398602d7e8785f743f1c2f93a9a15ff358284604051808381526020018281526020019250505060405180910390a25050565b6002600082815260200190815260200160002060020160009054906101000a900460ff16610cf9576040517f08c379a000000000000000000000000000000000000000000000000000000000815260040180806020018281038252602181526020018061156f6021913960400191505060405180910390fd5b6002600082815260200190815260200160002060010154341015610d85576040517f08c379a000000000000000000000000000000000000000000000000000000000815260040180806020018281038252600d8152602001807f6d6f6e6579203c2070726963650000000000000000000000000000000000000081525060200191505060405180910390fd5b600360009054906101000a900473ffffffffffffffffffffffffffffffffffffffff1673ffffffffffffffffffffffffffffffffffffffff166342842e0e6002600084815260200190815260200160002060000160009054906101000a900473ffffffffffffffffffffffffffffffffffffffff1633846040518463ffffffff1660e01b8152600401808473ffffffffffffffffffffffffffffffffffffffff1673ffffffffffffffffffffffffffffffffffffffff1681526020018373ffffffffffffffffffffffffffffffffffffffff1673ffffffffffffffffffffffffffffffffffffffff1681526020018281526020019350505050600060405180830381600087803b158015610e9857600080fd5b505af1158015610eac573d6000803e3d6000fd5b505050506002600082815260200190815260200160002060000160009054906101000a900473ffffffffffffffffffffffffffffffffffffffff1673ffffffffffffffffffffffffffffffffffffffff166108fc60026000848152602001908152602001600020600101549081150290604051600060405180830381858888f19350505050158015610f42573d6000803e3d6000fd5b503373ffffffffffffffffffffffffffffffffffffffff166002600083815260200190815260200160002060000160009054906101000a900473ffffffffffffffffffffffffffffffffffffffff1673ffffffffffffffffffffffffffffffffffffffff167f16dd16959a056953a63cf14bf427881e762e54f03d86b864efea8238dd3b822f600260008581526020019081526020016000206001015484604051808381526020018281526020019250505060405180910390a36040518060600160405280600073ffffffffffffffffffffffffffffffffffffffff16815260200160008152602001600015158152506002600083815260200190815260200160002060008201518160000160006101000a81548173ffffffffffffffffffffffffffffffffffffffff021916908373ffffffffffffffffffffffffffffffffffffffff1602179055506020820151816001015560408201518160020160006101000a81548160ff02191690831515021790555090505060008090505b6001805490508110156111025781600182815481106110da57fe5b906000526020600020015414156110f5576110f48161126d565b5b80806001019150506110bf565b5050565b61110e61073b565b611180576040517f08c379a00000000000000000000000000000000000000000000000000000000081526004018080602001828103825260208152602001807f4f776e61626c653a2063616c6c6572206973206e6f7420746865206f776e657281525060200191505060405180910390fd5b80600360006101000a81548173ffffffffffffffffffffffffffffffffffffffff021916908373ffffffffffffffffffffffffffffffffffffffff1602179055506001600360146101000a81548160ff02191690831515021790555050565b6111e761073b565b611259576040517f08c379a00000000000000000000000000000000000000000000000000000000081526004018080602001828103825260208152602001807f4f776e61626c653a2063616c6c6572206973206e6f7420746865206f776e657281525060200191505060405180910390fd5b6112628161135a565b50565b600033905090565b60018054905081106112e7576040517f08c379a000000000000000000000000000000000000000000000000000000000815260040180806020018281038252601b8152602001807f496d70726f70657220696e64657820666f722064656c6574696e67000000000081525060200191505060405180910390fd5b600180808054905003815481106112fa57fe5b90600052602060002001546001828154811061131257fe5b90600052602060002001819055506001808080549050038154811061133357fe5b90600052602060002001600090556001805480919060019003611356919061149e565b5050565b600073ffffffffffffffffffffffffffffffffffffffff168173ffffffffffffffffffffffffffffffffffffffff1614156113e0576040517f08c379a00000000000000000000000000000000000000000000000000000000081526004018080602001828103825260268152602001806115496026913960400191505060405180910390fd5b8073ffffffffffffffffffffffffffffffffffffffff166000809054906101000a900473ffffffffffffffffffffffffffffffffffffffff1673ffffffffffffffffffffffffffffffffffffffff167f8be0079c531659141344cd1fd0a4f28419497f9722a3daafe3b4186f6b6457e060405160405180910390a3806000806101000a81548173ffffffffffffffffffffffffffffffffffffffff021916908373ffffffffffffffffffffffffffffffffffffffff16021790555050565b8154818355818111156114c5578183600052602060002091820191016114c491906114ca565b5b505050565b6114ec91905b808211156114e85760008160009055506001016114d0565b5090565b9056fe546865204d61726b6574206973206e6f7420617070726f76656420666f72207468697320746f6b656e54686520434d436f6e7472616374206164647265737320686173206e6f74206265656e207365742070726f7065726c794f776e61626c653a206e6577206f776e657220697320746865207a65726f20616464726573735468697320746f6b656e206973206e6f74206c697374656420666f722073616c65547279696e6720746f2073656c6c206120746f6b656e20796f7520646f206e6f74206f776ea265627a7a72315820ae879433b7a155a56ca92726129b44b161b4831a499b31f2a8d507596885152564736f6c63430005100032",
  "source": "pragma solidity ^0.5.1;\n\nimport \"openzeppelin-solidity/contracts/token/ERC721/ERC721Holder.sol\";\nimport \"openzeppelin-solidity/contracts/ownership/Ownable.sol\";\nimport \"./Cryptomon.sol\";\n\ncontract Market is ERC721Holder, Ownable {\n    event Sold(\n        address indexed _from,\n        address indexed _to,\n        uint256 _value,\n        uint256 _tokenId\n    );\n    event Listed(address indexed _by, uint256 _value, uint256 _tokenId);\n    struct SellerInfo {\n        address payable seller;\n        uint256 price;\n        bool isSet;\n    }\n    uint256[] private listedTokens;\n    mapping(uint256 => SellerInfo) private sellers;\n\n    Cryptomon private CMContract;\n    bool private CMCisSet = false;\n\n    constructor() public ERC721Holder() Ownable() {}\n\n    function setCMContract(address CMaddress) external onlyOwner() {\n        CMContract = Cryptomon(CMaddress);\n        CMCisSet = true;\n    }\n\n    function getCMContract() public view onlyOwner() returns (Cryptomon) {\n        return CMContract;\n    }\n    function getListedTokens() public view returns (uint256[] memory) {\n        return listedTokens;\n    }\n    function getTokenPrice(uint256 tokenId) public view returns (uint256) {\n        require(sellers[tokenId].isSet, \"Token not listed for sale\");\n        return sellers[tokenId].price;\n    }\n\n    function sell(uint256 tokenId, uint256 price) public {\n        require(CMCisSet, \"The CMContract address has not been set properly\");\n        require(\n            CMContract.getApproved(tokenId) == address(this),\n            \"The Market is not approved for this token\"\n        );\n        require(\n            msg.sender == CMContract.ownerOf(tokenId),\n            \"Trying to sell a token you do not own\"\n        );\n        if (!sellers[tokenId].isSet) {\n            listedTokens.push(tokenId);\n        }\n        sellers[tokenId] = SellerInfo(msg.sender, price, true);\n\n        emit Listed(msg.sender, price, tokenId);\n    }\n\n    function _deleteListedToken(uint256 index) internal {\n        require(index < listedTokens.length, \"Improper index for deleting\");\n        listedTokens[index] = listedTokens[listedTokens.length - 1];\n        delete listedTokens[listedTokens.length - 1];\n        listedTokens.length--;\n    }\n\n    function buy(uint256 tokenId) public payable {\n        require(sellers[tokenId].isSet, \"This token is not listed for sale\");\n        require(msg.value >= sellers[tokenId].price, \"money < price\");\n        CMContract.safeTransferFrom(\n            sellers[tokenId].seller,\n            msg.sender,\n            tokenId\n        );\n        sellers[tokenId].seller.transfer(sellers[tokenId].price);\n        emit Sold(\n            sellers[tokenId].seller,\n            msg.sender,\n            sellers[tokenId].price,\n            tokenId\n        );\n        sellers[tokenId] = SellerInfo(address(0), 0, false);\n        for (uint256 i = 0; i < listedTokens.length; i++) {\n            if (listedTokens[i] == tokenId) {\n                _deleteListedToken(i);\n            }\n        }\n\n    }\n}\n",
  "sourcePath": "/Users/arthurdepasse/Documents/Imperial Courses/PDL/cryptomons/contracts/Market.sol",
  "compiler": {
    "name": "solc",
    "version": "0.5.16+commit.9c3226ce.Emscripten.clang"
  },
  "schemaVersion": "3.0.21",
  "updatedAt": "2020-01-25T16:11:41.449Z",
  "networkType": "ethereum",
  "devdoc": {
    "methods": {
      "isOwner()": {
        "details": "Returns true if the caller is the current owner."
      },
      "owner()": {
        "details": "Returns the address of the current owner."
      },
      "renounceOwnership()": {
        "details": "Leaves the contract without owner. It will not be possible to call `onlyOwner` functions anymore. Can only be called by the current owner.     * NOTE: Renouncing ownership will leave the contract without an owner, thereby removing any functionality that is only available to the owner."
      },
      "transferOwnership(address)": {
        "details": "Transfers ownership of the contract to a new account (`newOwner`). Can only be called by the current owner."
      }
    }
  },
  "userdoc": {
    "methods": {}
  }
}